{
  "_format": "hh-sol-artifact-1",
  "contractName": "NFTMarketplace",
  "sourceName": "contracts/NFTMarketplace.sol",
  "abi": [
    {
      "inputs": [
        {
          "internalType": "uint256",
          "name": "_feePercentage",
          "type": "uint256"
        },
        {
          "internalType": "address",
          "name": "_feeManager",
          "type": "address"
        }
      ],
      "stateMutability": "nonpayable",
      "type": "constructor"
    },
    {
      "inputs": [],
      "name": "AccessControlBadConfirmation",
      "type": "error"
    },
    {
      "inputs": [
        {
          "internalType": "address",
          "name": "account",
          "type": "address"
        },
        {
          "internalType": "bytes32",
          "name": "neededRole",
          "type": "bytes32"
        }
      ],
      "name": "AccessControlUnauthorizedAccount",
      "type": "error"
    },
    {
      "inputs": [
        {
          "internalType": "address",
          "name": "nftAddress",
          "type": "address"
        },
        {
          "internalType": "uint256",
          "name": "tokenId",
          "type": "uint256"
        }
      ],
      "name": "AlreadyListed",
      "type": "error"
    },
    {
      "inputs": [],
      "name": "EnforcedPause",
      "type": "error"
    },
    {
      "inputs": [],
      "name": "ExpectedPause",
      "type": "error"
    },
    {
      "inputs": [
        {
          "internalType": "uint256",
          "name": "required",
          "type": "uint256"
        },
        {
          "internalType": "uint256",
          "name": "sent",
          "type": "uint256"
        }
      ],
      "name": "InsufficientPayment",
      "type": "error"
    },
    {
      "inputs": [
        {
          "internalType": "address",
          "name": "nftAddress",
          "type": "address"
        },
        {
          "internalType": "uint256",
          "name": "tokenId",
          "type": "uint256"
        }
      ],
      "name": "MarketplaceNotApproved",
      "type": "error"
    },
    {
      "inputs": [],
      "name": "NoFeesToWithdraw",
      "type": "error"
    },
    {
      "inputs": [
        {
          "internalType": "address",
          "name": "nftAddress",
          "type": "address"
        },
        {
          "internalType": "uint256",
          "name": "tokenId",
          "type": "uint256"
        }
      ],
      "name": "NotListed",
      "type": "error"
    },
    {
      "inputs": [
        {
          "internalType": "address",
          "name": "sender",
          "type": "address"
        },
        {
          "internalType": "address",
          "name": "nftAddress",
          "type": "address"
        },
        {
          "internalType": "uint256",
          "name": "tokenId",
          "type": "uint256"
        }
      ],
      "name": "NotNFTOwner",
      "type": "error"
    },
    {
      "inputs": [
        {
          "internalType": "address",
          "name": "sender",
          "type": "address"
        },
        {
          "internalType": "address",
          "name": "nftAddress",
          "type": "address"
        },
        {
          "internalType": "uint256",
          "name": "tokenId",
          "type": "uint256"
        }
      ],
      "name": "NotSeller",
      "type": "error"
    },
    {
      "inputs": [],
      "name": "PriceMustBeGreaterThanZero",
      "type": "error"
    },
    {
      "inputs": [],
      "name": "ReentrancyGuardReentrantCall",
      "type": "error"
    },
    {
      "inputs": [],
      "name": "RefundFailed",
      "type": "error"
    },
    {
      "inputs": [],
      "name": "TransferFailed",
      "type": "error"
    },
    {
      "anonymous": false,
      "inputs": [
        {
          "indexed": true,
          "internalType": "address",
          "name": "seller",
          "type": "address"
        },
        {
          "indexed": true,
          "internalType": "address",
          "name": "nftAddress",
          "type": "address"
        },
        {
          "indexed": true,
          "internalType": "uint256",
          "name": "tokenId",
          "type": "uint256"
        }
      ],
      "name": "Canceled",
      "type": "event"
    },
    {
      "anonymous": false,
      "inputs": [
        {
          "indexed": false,
          "internalType": "uint256",
          "name": "newFeePercentage",
          "type": "uint256"
        }
      ],
      "name": "FeeUpdated",
      "type": "event"
    },
    {
      "anonymous": false,
      "inputs": [
        {
          "indexed": true,
          "internalType": "address",
          "name": "owner",
          "type": "address"
        },
        {
          "indexed": false,
          "internalType": "uint256",
          "name": "amount",
          "type": "uint256"
        }
      ],
      "name": "FeeWithdrawn",
      "type": "event"
    },
    {
      "anonymous": false,
      "inputs": [
        {
          "indexed": true,
          "internalType": "address",
          "name": "seller",
          "type": "address"
        },
        {
          "indexed": true,
          "internalType": "address",
          "name": "nftAddress",
          "type": "address"
        },
        {
          "indexed": true,
          "internalType": "uint256",
          "name": "tokenId",
          "type": "uint256"
        },
        {
          "indexed": false,
          "internalType": "uint256",
          "name": "price",
          "type": "uint256"
        }
      ],
      "name": "Listed",
      "type": "event"
    },
    {
      "anonymous": false,
      "inputs": [
        {
          "indexed": false,
          "internalType": "address",
          "name": "account",
          "type": "address"
        }
      ],
      "name": "Paused",
      "type": "event"
    },
    {
      "anonymous": false,
      "inputs": [
        {
          "indexed": true,
          "internalType": "address",
          "name": "buyer",
          "type": "address"
        },
        {
          "indexed": true,
          "internalType": "address",
          "name": "nftAddress",
          "type": "address"
        },
        {
          "indexed": true,
          "internalType": "uint256",
          "name": "tokenId",
          "type": "uint256"
        },
        {
          "indexed": false,
          "internalType": "uint256",
          "name": "price",
          "type": "uint256"
        }
      ],
      "name": "Purchased",
      "type": "event"
    },
    {
      "anonymous": false,
      "inputs": [
        {
          "indexed": true,
          "internalType": "bytes32",
          "name": "role",
          "type": "bytes32"
        },
        {
          "indexed": true,
          "internalType": "bytes32",
          "name": "previousAdminRole",
          "type": "bytes32"
        },
        {
          "indexed": true,
          "internalType": "bytes32",
          "name": "newAdminRole",
          "type": "bytes32"
        }
      ],
      "name": "RoleAdminChanged",
      "type": "event"
    },
    {
      "anonymous": false,
      "inputs": [
        {
          "indexed": true,
          "internalType": "bytes32",
          "name": "role",
          "type": "bytes32"
        },
        {
          "indexed": true,
          "internalType": "address",
          "name": "account",
          "type": "address"
        },
        {
          "indexed": true,
          "internalType": "address",
          "name": "sender",
          "type": "address"
        }
      ],
      "name": "RoleGranted",
      "type": "event"
    },
    {
      "anonymous": false,
      "inputs": [
        {
          "indexed": true,
          "internalType": "bytes32",
          "name": "role",
          "type": "bytes32"
        },
        {
          "indexed": true,
          "internalType": "address",
          "name": "account",
          "type": "address"
        },
        {
          "indexed": true,
          "internalType": "address",
          "name": "sender",
          "type": "address"
        }
      ],
      "name": "RoleRevoked",
      "type": "event"
    },
    {
      "anonymous": false,
      "inputs": [
        {
          "indexed": false,
          "internalType": "address",
          "name": "account",
          "type": "address"
        }
      ],
      "name": "Unpaused",
      "type": "event"
    },
    {
      "inputs": [],
      "name": "DEFAULT_ADMIN_ROLE",
      "outputs": [
        {
          "internalType": "bytes32",
          "name": "",
          "type": "bytes32"
        }
      ],
      "stateMutability": "view",
      "type": "function"
    },
    {
      "inputs": [],
      "name": "FEE_MANAGER_ROLE",
      "outputs": [
        {
          "internalType": "bytes32",
          "name": "",
          "type": "bytes32"
        }
      ],
      "stateMutability": "view",
      "type": "function"
    },
    {
      "inputs": [],
      "name": "PAUSER_ROLE",
      "outputs": [
        {
          "internalType": "bytes32",
          "name": "",
          "type": "bytes32"
        }
      ],
      "stateMutability": "view",
      "type": "function"
    },
    {
      "inputs": [],
      "name": "WITHDRAWER_ROLE",
      "outputs": [
        {
          "internalType": "bytes32",
          "name": "",
          "type": "bytes32"
        }
      ],
      "stateMutability": "view",
      "type": "function"
    },
    {
      "inputs": [
        {
          "internalType": "address",
          "name": "nftAddress",
          "type": "address"
        },
        {
          "internalType": "uint256",
          "name": "tokenId",
          "type": "uint256"
        }
      ],
      "name": "cancel",
      "outputs": [],
      "stateMutability": "nonpayable",
      "type": "function"
    },
    {
      "inputs": [],
      "name": "feePercentage",
      "outputs": [
        {
          "internalType": "uint256",
          "name": "",
          "type": "uint256"
        }
      ],
      "stateMutability": "view",
      "type": "function"
    },
    {
      "inputs": [
        {
          "internalType": "bytes32",
          "name": "role",
          "type": "bytes32"
        }
      ],
      "name": "getRoleAdmin",
      "outputs": [
        {
          "internalType": "bytes32",
          "name": "",
          "type": "bytes32"
        }
      ],
      "stateMutability": "view",
      "type": "function"
    },
    {
      "inputs": [
        {
          "internalType": "bytes32",
          "name": "role",
          "type": "bytes32"
        },
        {
          "internalType": "address",
          "name": "account",
          "type": "address"
        }
      ],
      "name": "grantRole",
      "outputs": [],
      "stateMutability": "nonpayable",
      "type": "function"
    },
    {
      "inputs": [
        {
          "internalType": "bytes32",
          "name": "role",
          "type": "bytes32"
        },
        {
          "internalType": "address",
          "name": "account",
          "type": "address"
        }
      ],
      "name": "hasRole",
      "outputs": [
        {
          "internalType": "bool",
          "name": "",
          "type": "bool"
        }
      ],
      "stateMutability": "view",
      "type": "function"
    },
    {
      "inputs": [
        {
          "internalType": "address",
          "name": "nftAddress",
          "type": "address"
        },
        {
          "internalType": "uint256",
          "name": "tokenId",
          "type": "uint256"
        },
        {
          "internalType": "uint256",
          "name": "price",
          "type": "uint256"
        }
      ],
      "name": "list",
      "outputs": [],
      "stateMutability": "nonpayable",
      "type": "function"
    },
    {
      "inputs": [
        {
          "internalType": "address",
          "name": "",
          "type": "address"
        },
        {
          "internalType": "uint256",
          "name": "",
          "type": "uint256"
        }
      ],
      "name": "listings",
      "outputs": [
        {
          "internalType": "address",
          "name": "seller",
          "type": "address"
        },
        {
          "internalType": "uint256",
          "name": "price",
          "type": "uint256"
        }
      ],
      "stateMutability": "view",
      "type": "function"
    },
    {
      "inputs": [
        {
          "internalType": "address",
          "name": "",
          "type": "address"
        }
      ],
      "name": "marketplaceFees",
      "outputs": [
        {
          "internalType": "uint256",
          "name": "",
          "type": "uint256"
        }
      ],
      "stateMutability": "view",
      "type": "function"
    },
    {
      "inputs": [],
      "name": "pause",
      "outputs": [],
      "stateMutability": "nonpayable",
      "type": "function"
    },
    {
      "inputs": [],
      "name": "paused",
      "outputs": [
        {
          "internalType": "bool",
          "name": "",
          "type": "bool"
        }
      ],
      "stateMutability": "view",
      "type": "function"
    },
    {
      "inputs": [
        {
          "internalType": "address",
          "name": "nftAddress",
          "type": "address"
        },
        {
          "internalType": "uint256",
          "name": "tokenId",
          "type": "uint256"
        }
      ],
      "name": "purchase",
      "outputs": [],
      "stateMutability": "payable",
      "type": "function"
    },
    {
      "inputs": [
        {
          "internalType": "bytes32",
          "name": "role",
          "type": "bytes32"
        },
        {
          "internalType": "address",
          "name": "callerConfirmation",
          "type": "address"
        }
      ],
      "name": "renounceRole",
      "outputs": [],
      "stateMutability": "nonpayable",
      "type": "function"
    },
    {
      "inputs": [
        {
          "internalType": "bytes32",
          "name": "role",
          "type": "bytes32"
        },
        {
          "internalType": "address",
          "name": "account",
          "type": "address"
        }
      ],
      "name": "revokeRole",
      "outputs": [],
      "stateMutability": "nonpayable",
      "type": "function"
    },
    {
      "inputs": [
        {
          "internalType": "bytes4",
          "name": "interfaceId",
          "type": "bytes4"
        }
      ],
      "name": "supportsInterface",
      "outputs": [
        {
          "internalType": "bool",
          "name": "",
          "type": "bool"
        }
      ],
      "stateMutability": "view",
      "type": "function"
    },
    {
      "inputs": [],
      "name": "unpause",
      "outputs": [],
      "stateMutability": "nonpayable",
      "type": "function"
    },
    {
      "inputs": [
        {
          "internalType": "uint256",
          "name": "_feePercentage",
          "type": "uint256"
        }
      ],
      "name": "updateFee",
      "outputs": [],
      "stateMutability": "nonpayable",
      "type": "function"
    },
    {
      "inputs": [],
      "name": "withdrawFees",
      "outputs": [],
      "stateMutability": "nonpayable",
      "type": "function"
    }
  ],
  "bytecode": "0x608060405234801561001057600080fd5b506040516113e93803806113e983398101604081905261002f91610163565b60016000908155600583905561004590336100ce565b506100707f6c0757dc3e6b28b2580c03fd9e96c274acf4f99d91fbec9b418fa1d70604ff1c826100ce565b5061009b7f65d7a28e3265b37a6474929f336521b332c1681b933f6cb9f3376673440d862a336100ce565b506100c67f10dac8c06a04bec0b551627dad28bc00d6516b0caacd1c7b345fcdb5211334e4336100ce565b5050506101a0565b60008281526001602090815260408083206001600160a01b038516845290915281205460ff166101595760008381526001602081815260408084206001600160a01b0387168086529252808420805460ff19169093179092559051339286917f2f8788117e7eff1d82e926ec794901d17c78024a50270940304540a733656f0d9190a450600161015d565b5060005b92915050565b6000806040838503121561017657600080fd5b825160208401519092506001600160a01b038116811461019557600080fd5b809150509250929050565b61123a806101af6000396000f3fe6080604052600436106101295760003560e01c806385f438c1116100ab578063a001ecdd1161006f578063a001ecdd14610380578063a217fddf14610396578063d547741f146103ab578063dda342bb146103cb578063e27d36e3146103eb578063e63ab1e91461041857600080fd5b806385f438c1146102d95780638de932221461030d5780639012c4a81461032057806391d148541461034057806398590ef91461036057600080fd5b806336568abe116100f257806336568abe146102625780633f4ba83a14610282578063476343ee146102975780635c975abb146102ac5780638456cb59146102c457600080fd5b806207df301461012e57806301ffc9a71461019d57806305db2f41146101cd578063248a9ca31461020f5780632f2ff15d14610240575b600080fd5b34801561013a57600080fd5b50610179610149366004611058565b6003602090815260009283526040808420909152908252902080546001909101546001600160a01b039091169082565b604080516001600160a01b0390931683526020830191909152015b60405180910390f35b3480156101a957600080fd5b506101bd6101b8366004611084565b61044c565b6040519015158152602001610194565b3480156101d957600080fd5b506102017f6c0757dc3e6b28b2580c03fd9e96c274acf4f99d91fbec9b418fa1d70604ff1c81565b604051908152602001610194565b34801561021b57600080fd5b5061020161022a3660046110b5565b6000908152600160208190526040909120015490565b34801561024c57600080fd5b5061026061025b3660046110ce565b610483565b005b34801561026e57600080fd5b5061026061027d3660046110ce565b6104af565b34801561028e57600080fd5b506102606104e7565b3480156102a357600080fd5b5061026061051c565b3480156102b857600080fd5b5060025460ff166101bd565b3480156102d057600080fd5b50610260610628565b3480156102e557600080fd5b506102017f10dac8c06a04bec0b551627dad28bc00d6516b0caacd1c7b345fcdb5211334e481565b61026061031b366004611058565b61065a565b34801561032c57600080fd5b5061026061033b3660046110b5565b61095c565b34801561034c57600080fd5b506101bd61035b3660046110ce565b6109c2565b34801561036c57600080fd5b5061026061037b366004611058565b6109ed565b34801561038c57600080fd5b5061020160055481565b3480156103a257600080fd5b50610201600081565b3480156103b757600080fd5b506102606103c63660046110ce565b610b16565b3480156103d757600080fd5b506102606103e63660046110fe565b610b3c565b3480156103f757600080fd5b50610201610406366004611133565b60046020526000908152604090205481565b34801561042457600080fd5b506102017f65d7a28e3265b37a6474929f336521b332c1681b933f6cb9f3376673440d862a81565b60006001600160e01b03198216637965db0b60e01b148061047d57506301ffc9a760e01b6001600160e01b03198316145b92915050565b6000828152600160208190526040909120015461049f81610e14565b6104a98383610e1e565b50505050565b6001600160a01b03811633146104d85760405163334bd91960e11b815260040160405180910390fd5b6104e28282610e97565b505050565b7f65d7a28e3265b37a6474929f336521b332c1681b933f6cb9f3376673440d862a61051181610e14565b610519610f04565b50565b7f10dac8c06a04bec0b551627dad28bc00d6516b0caacd1c7b345fcdb5211334e461054681610e14565b306000908152600460205260408120549081900361057757604051630d00db4d60e31b815260040160405180910390fd5b3060009081526004602052604080822082905551339083908381818185875af1925050503d80600081146105c7576040519150601f19603f3d011682016040523d82523d6000602084013e6105cc565b606091505b50509050806105ee576040516312171d8360e31b815260040160405180910390fd5b60405182815233907f78473f3f373f7673597f4f0fa5873cb4d375fea6d4339ad6b56dbd411513cb3f9060200160405180910390a2505050565b7f65d7a28e3265b37a6474929f336521b332c1681b933f6cb9f3376673440d862a61065281610e14565b610519610f56565b6001600160a01b03821660009081526003602090815260408083208484529091528120600101548391839190036106bb57604051631a0c522360e21b81526001600160a01b0383166004820152602481018290526044015b60405180910390fd5b6106c3610f93565b6106cb610fbd565b6001600160a01b0384166000908152600360209081526040808320868452909152902060018101543481111561071d5760405163b99e2ab760e01b8152600481018290523460248201526044016106b2565b600060646005548361072f9190611166565b610739919061117d565b90506000610747828461119f565b9050811561077457306000908152600460205260408120805484929061076e9084906111b2565b90915550505b83546001600160a01b0389811660008181526003602090815260408083208d845290915280822080546001600160a01b03191681556001019190915551632142170760e11b81529190921660048201819052336024830152604482018a905291906342842e0e90606401600060405180830381600087803b1580156107f857600080fd5b505af115801561080c573d6000803e3d6000fd5b505050506000816001600160a01b03168360405160006040518083038185875af1925050503d806000811461085d576040519150601f19603f3d011682016040523d82523d6000602084013e610862565b606091505b5050905080610884576040516312171d8360e31b815260040160405180910390fd5b843411156108fe57600033610899873461119f565b604051600081818185875af1925050503d80600081146108d5576040519150601f19603f3d011682016040523d82523d6000602084013e6108da565b606091505b50509050806108fc57604051633c31275160e21b815260040160405180910390fd5b505b888a6001600160a01b0316336001600160a01b03167fa326259ec721617acd3cb2a00bcbeac91eefe409880e49aa2bbf473ed648da498860405161094491815260200190565b60405180910390a45050505050506104a96001600055565b7f6c0757dc3e6b28b2580c03fd9e96c274acf4f99d91fbec9b418fa1d70604ff1c61098681610e14565b60058290556040518281527f8c4d35e54a3f2ef1134138fd8ea3daee6a3c89e10d2665996babdf70261e2c769060200160405180910390a15050565b60009182526001602090815260408084206001600160a01b0393909316845291905290205460ff1690565b6001600160a01b0382166000908152600360209081526040808320848452909152812060010154839183919003610a4957604051631a0c522360e21b81526001600160a01b0383166004820152602481018290526044016106b2565b610a51610fbd565b6001600160a01b038481166000908152600360209081526040808320878452909152902054163314610aae57604051633dd3660d60e01b81523360048201526001600160a01b0385166024820152604481018490526064016106b2565b6001600160a01b038416600081815260036020908152604080832087845290915280822080546001600160a01b03191681556001018290555185929133917f7a474a7438d5f1dd10b368d84960c99d45e011ac29f2f10d6acfbb1aa284cf499190a450505050565b60008281526001602081905260409091200154610b3281610e14565b6104a98383610e97565b6001600160a01b03831660009081526003602090815260408083208584529091529020600101548390839015610b9757604051634a5568d560e01b81526001600160a01b0383166004820152602481018290526044016106b2565b610b9f610fbd565b82600003610bc0576040516323a3620960e01b815260040160405180910390fd5b6040516331a9108f60e11b815260048101859052859033906001600160a01b03831690636352211e90602401602060405180830381865afa158015610c09573d6000803e3d6000fd5b505050506040513d601f19601f82011682018060405250810190610c2d91906111c5565b6001600160a01b031614610c6c57604051634f1638c360e11b81523360048201526001600160a01b0387166024820152604481018690526064016106b2565b60405163e985e9c560e01b81523360048201523060248201526001600160a01b0382169063e985e9c590604401602060405180830381865afa158015610cb6573d6000803e3d6000fd5b505050506040513d601f19601f82011682018060405250810190610cda91906111e2565b80610d56575060405163020604bf60e21b81526004810186905230906001600160a01b0383169063081812fc90602401602060405180830381865afa158015610d27573d6000803e3d6000fd5b505050506040513d601f19601f82011682018060405250810190610d4b91906111c5565b6001600160a01b0316145b610d8557604051630310ab7f60e01b81526001600160a01b0387166004820152602481018690526044016106b2565b6040805180820182523380825260208083018881526001600160a01b038b81166000818152600385528781208d82528552879020955186546001600160a01b03191692169190911785559051600190940193909355925187815288937fd9d69fee247951cc283dc6f5b64c36ce396a36146405a798b86ebfd113c8b5ca910160405180910390a4505050505050565b6105198133610fe3565b6000610e2a83836109c2565b610e8f5760008381526001602081815260408084206001600160a01b0387168086529252808420805460ff19169093179092559051339286917f2f8788117e7eff1d82e926ec794901d17c78024a50270940304540a733656f0d9190a450600161047d565b50600061047d565b6000610ea383836109c2565b15610e8f5760008381526001602090815260408083206001600160a01b0386168085529252808320805460ff1916905551339286917ff6391f5c32d9c69d2a47ea670b442974b53935d1edc7fd64eb21e047a839171b9190a450600161047d565b610f0c611020565b6002805460ff191690557f5db9ee0a495bf2e6ff9c91a7834c1ba4fdd244a5e8aa4e537bd38aeae4b073aa335b6040516001600160a01b03909116815260200160405180910390a1565b610f5e610fbd565b6002805460ff191660011790557f62e78cea01bee320cd4e420270b5ea74000d11b0c9f74754ebdbfc544b05a258610f393390565b600260005403610fb657604051633ee5aeb560e01b815260040160405180910390fd5b6002600055565b60025460ff1615610fe15760405163d93c066560e01b815260040160405180910390fd5b565b610fed82826109c2565b61101c5760405163e2517d3f60e01b81526001600160a01b0382166004820152602481018390526044016106b2565b5050565b60025460ff16610fe157604051638dfc202b60e01b815260040160405180910390fd5b6001600160a01b038116811461051957600080fd5b6000806040838503121561106b57600080fd5b823561107681611043565b946020939093013593505050565b60006020828403121561109657600080fd5b81356001600160e01b0319811681146110ae57600080fd5b9392505050565b6000602082840312156110c757600080fd5b5035919050565b600080604083850312156110e157600080fd5b8235915060208301356110f381611043565b809150509250929050565b60008060006060848603121561111357600080fd5b833561111e81611043565b95602085013595506040909401359392505050565b60006020828403121561114557600080fd5b81356110ae81611043565b634e487b7160e01b600052601160045260246000fd5b808202811582820484141761047d5761047d611150565b60008261119a57634e487b7160e01b600052601260045260246000fd5b500490565b8181038181111561047d5761047d611150565b8082018082111561047d5761047d611150565b6000602082840312156111d757600080fd5b81516110ae81611043565b6000602082840312156111f457600080fd5b815180151581146110ae57600080fdfea26469706673582212205e89f2ccdb0887d3886ffe1ccc4f819db474db117760be1c4a2352d5be4975d264736f6c634300081c0033",
  "linkReferences": {},
  "deployedLinkReferences": {}
}